{
  "contractName": "Calculator",
  "abi": [
    {
      "inputs": [],
      "name": "result",
      "outputs": [
        {
          "internalType": "uint256",
          "name": "",
          "type": "uint256"
        }
      ],
      "stateMutability": "view",
      "type": "function",
      "constant": true
    },
    {
      "inputs": [
        {
          "internalType": "uint256",
          "name": "a",
          "type": "uint256"
        },
        {
          "internalType": "uint256",
          "name": "b",
          "type": "uint256"
        }
      ],
      "name": "add",
      "outputs": [],
      "stateMutability": "nonpayable",
      "type": "function"
    },
    {
      "inputs": [
        {
          "internalType": "uint256",
          "name": "a",
          "type": "uint256"
        },
        {
          "internalType": "uint256",
          "name": "b",
          "type": "uint256"
        }
      ],
      "name": "subtract",
      "outputs": [],
      "stateMutability": "nonpayable",
      "type": "function"
    },
    {
      "inputs": [
        {
          "internalType": "uint256",
          "name": "a",
          "type": "uint256"
        },
        {
          "internalType": "uint256",
          "name": "b",
          "type": "uint256"
        }
      ],
      "name": "divide",
      "outputs": [],
      "stateMutability": "nonpayable",
      "type": "function"
    },
    {
      "inputs": [
        {
          "internalType": "uint256",
          "name": "a",
          "type": "uint256"
        },
        {
          "internalType": "uint256",
          "name": "b",
          "type": "uint256"
        }
      ],
      "name": "multiply",
      "outputs": [],
      "stateMutability": "nonpayable",
      "type": "function"
    }
  ],
  "bytecode": "0x608060405234801561001057600080fd5b50610444806100206000396000f3fe608060405234801561001057600080fd5b50600436106100575760003560e01c8063165c4a161461005c5780633ef5e445146100785780636537214714610094578063771602f7146100b2578063f88e9fbf146100ce575b600080fd5b610076600480360381019061007191906101a3565b6100ea565b005b610092600480360381019061008d91906101a3565b610100565b005b61009c610116565b6040516100a9919061024e565b60405180910390f35b6100cc60048036038101906100c791906101a3565b61011c565b005b6100e860048036038101906100e391906101a3565b610132565b005b80826100f69190610301565b6000819055505050565b808261010c919061035b565b6000819055505050565b60005481565b8082610128919061027a565b6000819055505050565b806000811415610177576040517f08c379a000000000000000000000000000000000000000000000000000000000815260040161016e9061022e565b60405180910390fd5b818361018391906102d0565b600081905550505050565b60008135905061019d816103f7565b92915050565b600080604083850312156101b657600080fd5b60006101c48582860161018e565b92505060206101d58582860161018e565b9150509250929050565b60006101ec601583610269565b91507f4e756d6265722063616e6e6f74206265207a65726f00000000000000000000006000830152602082019050919050565b6102288161038f565b82525050565b60006020820190508181036000830152610247816101df565b9050919050565b6000602082019050610263600083018461021f565b92915050565b600082825260208201905092915050565b60006102858261038f565b91506102908361038f565b9250827fffffffffffffffffffffffffffffffffffffffffffffffffffffffffffffffff038211156102c5576102c4610399565b5b828201905092915050565b60006102db8261038f565b91506102e68361038f565b9250826102f6576102f56103c8565b5b828204905092915050565b600061030c8261038f565b91506103178361038f565b9250817fffffffffffffffffffffffffffffffffffffffffffffffffffffffffffffffff04831182151516156103505761034f610399565b5b828202905092915050565b60006103668261038f565b91506103718361038f565b92508282101561038457610383610399565b5b828203905092915050565b6000819050919050565b7f4e487b7100000000000000000000000000000000000000000000000000000000600052601160045260246000fd5b7f4e487b7100000000000000000000000000000000000000000000000000000000600052601260045260246000fd5b6104008161038f565b811461040b57600080fd5b5056fea2646970667358221220fe4d836d0a21bd69840400483b483500e569b8e1b992d6f9cbeac100b22a095b64736f6c63430008000033",
  "immutableReferences": {},
  "source": "// SPDX-License-Identifier: MIT\r\npragma solidity ^0.8.0;\r\n\r\ncontract Calculator {\r\n uint256 public result;\r\n \r\n function add(uint256 a, uint256 b) public {\r\n result = a + b;\r\n }\r\n \r\n function subtract(uint256 a, uint256 b) public {\r\n result = a - b;\r\n }\r\n \r\n modifier nonZero(uint256 number) {\r\n require(number != 0, \"Number cannot be zero\");\r\n _;\r\n }\r\n \r\n function divide(uint256 a, uint256 b) public nonZero(b) {\r\n result = a / b;\r\n }\r\n\r\n function multiply(uint256 a, uint b) public {\r\n    result = a * b;\r\n }\r\n}",
  "sourcePath": "C:\\Users\\marti\\Documents\\projects\\web3-calculator\\contracts\\Calculator.sol",
  "compiler": {
    "name": "solc",
    "version": "0.8.0+commit.c7dfd78e.Emscripten.clang"
  },
  "schemaVersion": "3.4.16",
  "updatedAt": "2024-01-11T15:11:23.509Z",
  "networkType": "ethereum",
  "devdoc": {
    "kind": "dev",
    "methods": {},
    "version": 1
  },
  "userdoc": {
    "kind": "user",
    "methods": {},
    "version": 1
  }
}